{
  "_format": "hh-sol-artifact-1",
  "contractName": "CrowdfundingOptimized",
  "sourceName": "contracts/Crowdfunding_optimized.sol",
  "abi": [
    {
      "anonymous": false,
      "inputs": [
        {
          "indexed": false,
          "internalType": "uint256",
          "name": "id",
          "type": "uint256"
        },
        {
          "indexed": true,
          "internalType": "address",
          "name": "owner",
          "type": "address"
        },
        {
          "indexed": false,
          "internalType": "string",
          "name": "title",
          "type": "string"
        },
        {
          "indexed": false,
          "internalType": "uint256",
          "name": "target",
          "type": "uint256"
        },
        {
          "indexed": false,
          "internalType": "uint256",
          "name": "deadline",
          "type": "uint256"
        }
      ],
      "name": "CampaignCreated",
      "type": "event"
    },
    {
      "anonymous": false,
      "inputs": [
        {
          "indexed": true,
          "internalType": "uint256",
          "name": "id",
          "type": "uint256"
        },
        {
          "indexed": true,
          "internalType": "address",
          "name": "donator",
          "type": "address"
        },
        {
          "indexed": false,
          "internalType": "uint256",
          "name": "amount",
          "type": "uint256"
        }
      ],
      "name": "DonationReceived",
      "type": "event"
    },
    {
      "anonymous": false,
      "inputs": [
        {
          "indexed": true,
          "internalType": "uint256",
          "name": "id",
          "type": "uint256"
        },
        {
          "indexed": false,
          "internalType": "uint256",
          "name": "amount",
          "type": "uint256"
        }
      ],
      "name": "FundsWithdrawn",
      "type": "event"
    },
    {
      "anonymous": false,
      "inputs": [
        {
          "indexed": true,
          "internalType": "uint256",
          "name": "id",
          "type": "uint256"
        },
        {
          "indexed": true,
          "internalType": "address",
          "name": "donator",
          "type": "address"
        },
        {
          "indexed": false,
          "internalType": "uint256",
          "name": "amount",
          "type": "uint256"
        }
      ],
      "name": "RefundIssued",
      "type": "event"
    },
    {
      "inputs": [
        {
          "internalType": "uint256",
          "name": "",
          "type": "uint256"
        }
      ],
      "name": "campaigns",
      "outputs": [
        {
          "internalType": "address",
          "name": "owner",
          "type": "address"
        },
        {
          "internalType": "string",
          "name": "title",
          "type": "string"
        },
        {
          "internalType": "string",
          "name": "description",
          "type": "string"
        },
        {
          "internalType": "uint256",
          "name": "target",
          "type": "uint256"
        },
        {
          "internalType": "uint256",
          "name": "deadline",
          "type": "uint256"
        },
        {
          "internalType": "uint256",
          "name": "amountCollected",
          "type": "uint256"
        }
      ],
      "stateMutability": "view",
      "type": "function"
    },
    {
      "inputs": [
        {
          "internalType": "uint256",
          "name": "_id",
          "type": "uint256"
        }
      ],
      "name": "claimRefund",
      "outputs": [],
      "stateMutability": "nonpayable",
      "type": "function"
    },
    {
      "inputs": [
        {
          "internalType": "string",
          "name": "_title",
          "type": "string"
        },
        {
          "internalType": "string",
          "name": "_description",
          "type": "string"
        },
        {
          "internalType": "uint256",
          "name": "_target",
          "type": "uint256"
        },
        {
          "internalType": "uint256",
          "name": "_deadline",
          "type": "uint256"
        }
      ],
      "name": "createCampaign",
      "outputs": [
        {
          "internalType": "uint256",
          "name": "",
          "type": "uint256"
        }
      ],
      "stateMutability": "nonpayable",
      "type": "function"
    },
    {
      "inputs": [
        {
          "internalType": "uint256",
          "name": "_id",
          "type": "uint256"
        }
      ],
      "name": "donateToCampaign",
      "outputs": [],
      "stateMutability": "payable",
      "type": "function"
    },
    {
      "inputs": [
        {
          "internalType": "uint256",
          "name": "_id",
          "type": "uint256"
        }
      ],
      "name": "getDonators",
      "outputs": [
        {
          "internalType": "address[]",
          "name": "",
          "type": "address[]"
        }
      ],
      "stateMutability": "view",
      "type": "function"
    },
    {
      "inputs": [],
      "name": "numberOfCampaigns",
      "outputs": [
        {
          "internalType": "uint256",
          "name": "",
          "type": "uint256"
        }
      ],
      "stateMutability": "view",
      "type": "function"
    },
    {
      "inputs": [
        {
          "internalType": "uint256",
          "name": "_id",
          "type": "uint256"
        }
      ],
      "name": "withdrawFunds",
      "outputs": [],
      "stateMutability": "nonpayable",
      "type": "function"
    }
  ],
  "bytecode": "0x608060405234801561001057600080fd5b50611788806100206000396000f3fe6080604052600436106100705760003560e01c8063155dd5ee1161004e578063155dd5ee1461011f57806342a4fda8146101485780635b7baf6414610164578063a318f2691461018d57610070565b806307ca140d146100755780630fa91fa9146100a0578063141961bc146100dd575b600080fd5b34801561008157600080fd5b5061008a6101ca565b6040516100979190610b6d565b60405180910390f35b3480156100ac57600080fd5b506100c760048036038101906100c29190610bc8565b6101d0565b6040516100d49190610ce5565b60405180910390f35b3480156100e957600080fd5b5061010460048036038101906100ff9190610bc8565b610273565b60405161011696959493929190610da6565b60405180910390f35b34801561012b57600080fd5b5061014660048036038101906101419190610bc8565b6103df565b005b610162600480360381019061015d9190610bc8565b6105d3565b005b34801561017057600080fd5b5061018b60048036038101906101869190610bc8565b6107e7565b005b34801561019957600080fd5b506101b460048036038101906101af9190610f4a565b6109f8565b6040516101c19190610b6d565b60405180910390f35b60015481565b606060008083815260200190815260200160002060070180548060200260200160405190810160405280929190818152602001828054801561026757602002820191906000526020600020905b8160009054906101000a900473ffffffffffffffffffffffffffffffffffffffff1673ffffffffffffffffffffffffffffffffffffffff168152602001906001019080831161021d575b50505050509050919050565b60006020528060005260406000206000915090508060000160009054906101000a900473ffffffffffffffffffffffffffffffffffffffff16908060010180546102bc90611018565b80601f01602080910402602001604051908101604052809291908181526020018280546102e890611018565b80156103355780601f1061030a57610100808354040283529160200191610335565b820191906000526020600020905b81548152906001019060200180831161031857829003601f168201915b50505050509080600201805461034a90611018565b80601f016020809104026020016040519081016040528092919081815260200182805461037690611018565b80156103c35780601f10610398576101008083540402835291602001916103c3565b820191906000526020600020905b8154815290600101906020018083116103a657829003601f168201915b5050505050908060030154908060040154908060050154905086565b600080600083815260200190815260200160002090508060000160009054906101000a900473ffffffffffffffffffffffffffffffffffffffff1673ffffffffffffffffffffffffffffffffffffffff163373ffffffffffffffffffffffffffffffffffffffff1614610487576040517f08c379a000000000000000000000000000000000000000000000000000000000815260040161047e90611095565b60405180910390fd5b806004015442116104cd576040517f08c379a00000000000000000000000000000000000000000000000000000000081526004016104c490611101565b60405180910390fd5b806003015481600501541015610518576040517f08c379a000000000000000000000000000000000000000000000000000000000815260040161050f9061116d565b60405180910390fd5b600081600501549050600082600501819055508160000160009054906101000a900473ffffffffffffffffffffffffffffffffffffffff1673ffffffffffffffffffffffffffffffffffffffff166108fc829081150290604051600060405180830381858888f19350505050158015610595573d6000803e3d6000fd5b50827fd66662c0ded9e58fd31d5e44944bcfd07ffc15e6927ecc1382e7941cb7bd24c4826040516105c69190610b6d565b60405180910390a2505050565b600080600083815260200190815260200160002090508060040154421061062f576040517f08c379a0000000000000000000000000000000000000000000000000000000008152600401610626906111d9565b60405180910390fd5b60003411610672576040517f08c379a000000000000000000000000000000000000000000000000000000000815260040161066990611245565b60405180910390fd5b60008160060160003373ffffffffffffffffffffffffffffffffffffffff1673ffffffffffffffffffffffffffffffffffffffff16815260200190815260200160002054036107215780600701339080600181540180825580915050600190039060005260206000200160009091909190916101000a81548173ffffffffffffffffffffffffffffffffffffffff021916908373ffffffffffffffffffffffffffffffffffffffff1602179055505b348160060160003373ffffffffffffffffffffffffffffffffffffffff1673ffffffffffffffffffffffffffffffffffffffff16815260200190815260200160002060008282546107729190611294565b925050819055503481600501600082825461078d9190611294565b925050819055503373ffffffffffffffffffffffffffffffffffffffff16827f0b5b4c52969ff7329ecf7ee536409fda87812b15a8622bc6e8cdeab3aee14a26346040516107db9190610b6d565b60405180910390a35050565b6000806000838152602001908152602001600020905080600401544211610843576040517f08c379a000000000000000000000000000000000000000000000000000000000815260040161083a90611101565b60405180910390fd5b806003015481600501541061088d576040517f08c379a000000000000000000000000000000000000000000000000000000000815260040161088490611314565b60405180910390fd5b60008160060160003373ffffffffffffffffffffffffffffffffffffffff1673ffffffffffffffffffffffffffffffffffffffff16815260200190815260200160002054905060008111610916576040517f08c379a000000000000000000000000000000000000000000000000000000000815260040161090d90611380565b60405180910390fd5b60008260060160003373ffffffffffffffffffffffffffffffffffffffff1673ffffffffffffffffffffffffffffffffffffffff168152602001908152602001600020819055503373ffffffffffffffffffffffffffffffffffffffff166108fc829081150290604051600060405180830381858888f193505050501580156109a3573d6000803e3d6000fd5b503373ffffffffffffffffffffffffffffffffffffffff16837f7a482fdeb6bc9a1376f597068a214a7a39472bb2eff1b8cad21ba04f49ddca1b836040516109eb9190610b6d565b60405180910390a3505050565b6000428211610a3c576040517f08c379a0000000000000000000000000000000000000000000000000000000008152600401610a33906113ec565b60405180910390fd5b600080600060015481526020019081526020016000209050338160000160006101000a81548173ffffffffffffffffffffffffffffffffffffffff021916908373ffffffffffffffffffffffffffffffffffffffff16021790555085816001019081610aa891906115b8565b5084816002019081610aba91906115b8565b508381600301819055508281600401819055503373ffffffffffffffffffffffffffffffffffffffff167fdc26653af5b99b2da33e2ad69ee6600d9aeccc82b034501db4338309615ca238600154888787604051610b1b949392919061168a565b60405180910390a260016000815480929190610b36906116d6565b919050555060018054610b49919061171e565b915050949350505050565b6000819050919050565b610b6781610b54565b82525050565b6000602082019050610b826000830184610b5e565b92915050565b6000604051905090565b600080fd5b600080fd5b610ba581610b54565b8114610bb057600080fd5b50565b600081359050610bc281610b9c565b92915050565b600060208284031215610bde57610bdd610b92565b5b6000610bec84828501610bb3565b91505092915050565b600081519050919050565b600082825260208201905092915050565b6000819050602082019050919050565b600073ffffffffffffffffffffffffffffffffffffffff82169050919050565b6000610c4c82610c21565b9050919050565b610c5c81610c41565b82525050565b6000610c6e8383610c53565b60208301905092915050565b6000602082019050919050565b6000610c9282610bf5565b610c9c8185610c00565b9350610ca783610c11565b8060005b83811015610cd8578151610cbf8882610c62565b9750610cca83610c7a565b925050600181019050610cab565b5085935050505092915050565b60006020820190508181036000830152610cff8184610c87565b905092915050565b610d1081610c41565b82525050565b600081519050919050565b600082825260208201905092915050565b60005b83811015610d50578082015181840152602081019050610d35565b60008484015250505050565b6000601f19601f8301169050919050565b6000610d7882610d16565b610d828185610d21565b9350610d92818560208601610d32565b610d9b81610d5c565b840191505092915050565b600060c082019050610dbb6000830189610d07565b8181036020830152610dcd8188610d6d565b90508181036040830152610de18187610d6d565b9050610df06060830186610b5e565b610dfd6080830185610b5e565b610e0a60a0830184610b5e565b979650505050505050565b600080fd5b600080fd5b7f4e487b7100000000000000000000000000000000000000000000000000000000600052604160045260246000fd5b610e5782610d5c565b810181811067ffffffffffffffff82111715610e7657610e75610e1f565b5b80604052505050565b6000610e89610b88565b9050610e958282610e4e565b919050565b600067ffffffffffffffff821115610eb557610eb4610e1f565b5b610ebe82610d5c565b9050602081019050919050565b82818337600083830152505050565b6000610eed610ee884610e9a565b610e7f565b905082815260208101848484011115610f0957610f08610e1a565b5b610f14848285610ecb565b509392505050565b600082601f830112610f3157610f30610e15565b5b8135610f41848260208601610eda565b91505092915050565b60008060008060808587031215610f6457610f63610b92565b5b600085013567ffffffffffffffff811115610f8257610f81610b97565b5b610f8e87828801610f1c565b945050602085013567ffffffffffffffff811115610faf57610fae610b97565b5b610fbb87828801610f1c565b9350506040610fcc87828801610bb3565b9250506060610fdd87828801610bb3565b91505092959194509250565b7f4e487b7100000000000000000000000000000000000000000000000000000000600052602260045260246000fd5b6000600282049050600182168061103057607f821691505b60208210810361104357611042610fe9565b5b50919050565b7f4f6e6c792063726561746f720000000000000000000000000000000000000000600082015250565b600061107f600c83610d21565b915061108a82611049565b602082019050919050565b600060208201905081810360008301526110ae81611072565b9050919050565b7f546f6f206561726c790000000000000000000000000000000000000000000000600082015250565b60006110eb600983610d21565b91506110f6826110b5565b602082019050919050565b6000602082019050818103600083015261111a816110de565b9050919050565b7f476f616c206e6f74206d65740000000000000000000000000000000000000000600082015250565b6000611157600c83610d21565b915061116282611121565b602082019050919050565b600060208201905081810360008301526111868161114a565b9050919050565b7f43616d706169676e206578706972656400000000000000000000000000000000600082015250565b60006111c3601083610d21565b91506111ce8261118d565b602082019050919050565b600060208201905081810360008301526111f2816111b6565b9050919050565b7f4d75737420646f6e617465206d6f7265207468616e2030000000000000000000600082015250565b600061122f601783610d21565b915061123a826111f9565b602082019050919050565b6000602082019050818103600083015261125e81611222565b9050919050565b7f4e487b7100000000000000000000000000000000000000000000000000000000600052601160045260246000fd5b600061129f82610b54565b91506112aa83610b54565b92508282019050808211156112c2576112c1611265565b5b92915050565b7f476f616c206d65742c206e6f20726566756e6473000000000000000000000000600082015250565b60006112fe601483610d21565b9150611309826112c8565b602082019050919050565b6000602082019050818103600083015261132d816112f1565b9050919050565b7f4e6f2066756e647320746f20726566756e640000000000000000000000000000600082015250565b600061136a601283610d21565b915061137582611334565b602082019050919050565b600060208201905081810360008301526113998161135d565b9050919050565b7f446561646c696e65206d75737420626520696e20667574757265000000000000600082015250565b60006113d6601a83610d21565b91506113e1826113a0565b602082019050919050565b60006020820190508181036000830152611405816113c9565b9050919050565b60008190508160005260206000209050919050565b60006020601f8301049050919050565b600082821b905092915050565b60006008830261146e7fffffffffffffffffffffffffffffffffffffffffffffffffffffffffffffffff82611431565b6114788683611431565b95508019841693508086168417925050509392505050565b6000819050919050565b60006114b56114b06114ab84610b54565b611490565b610b54565b9050919050565b6000819050919050565b6114cf8361149a565b6114e36114db826114bc565b84845461143e565b825550505050565b600090565b6114f86114eb565b6115038184846114c6565b505050565b5b818110156115275761151c6000826114f0565b600181019050611509565b5050565b601f82111561156c5761153d8161140c565b61154684611421565b81016020851015611555578190505b61156961156185611421565b830182611508565b50505b505050565b600082821c905092915050565b600061158f60001984600802611571565b1980831691505092915050565b60006115a8838361157e565b9150826002028217905092915050565b6115c182610d16565b67ffffffffffffffff8111156115da576115d9610e1f565b5b6115e48254611018565b6115ef82828561152b565b600060209050601f8311600181146116225760008415611610578287015190505b61161a858261159c565b865550611682565b601f1984166116308661140c565b60005b8281101561165857848901518255600182019150602085019450602081019050611633565b868310156116755784890151611671601f89168261157e565b8355505b6001600288020188555050505b505050505050565b600060808201905061169f6000830187610b5e565b81810360208301526116b18186610d6d565b90506116c06040830185610b5e565b6116cd6060830184610b5e565b95945050505050565b60006116e182610b54565b91507fffffffffffffffffffffffffffffffffffffffffffffffffffffffffffffffff820361171357611712611265565b5b600182019050919050565b600061172982610b54565b915061173483610b54565b925082820390508181111561174c5761174b611265565b5b9291505056fea2646970667358221220751c5b8ae641b247f9209248ecf934ee39de29d44e0f964e333a3ce19c62d5ed64736f6c63430008140033",
  "linkReferences": {},
  "deployedLinkReferences": {}
}