{
  "_format": "hh-sol-artifact-1",
  "contractName": "Crowdfunding",
  "sourceName": "contracts/Crowdfunding_before.sol",
  "abi": [
    {
      "anonymous": false,
      "inputs": [
        {
          "indexed": false,
          "internalType": "uint256",
          "name": "id",
          "type": "uint256"
        },
        {
          "indexed": true,
          "internalType": "address",
          "name": "owner",
          "type": "address"
        },
        {
          "indexed": false,
          "internalType": "string",
          "name": "title",
          "type": "string"
        },
        {
          "indexed": false,
          "internalType": "uint256",
          "name": "target",
          "type": "uint256"
        },
        {
          "indexed": false,
          "internalType": "uint256",
          "name": "deadline",
          "type": "uint256"
        }
      ],
      "name": "CampaignCreated",
      "type": "event"
    },
    {
      "anonymous": false,
      "inputs": [
        {
          "indexed": true,
          "internalType": "uint256",
          "name": "id",
          "type": "uint256"
        },
        {
          "indexed": true,
          "internalType": "address",
          "name": "donator",
          "type": "address"
        },
        {
          "indexed": false,
          "internalType": "uint256",
          "name": "amount",
          "type": "uint256"
        }
      ],
      "name": "DonationReceived",
      "type": "event"
    },
    {
      "anonymous": false,
      "inputs": [
        {
          "indexed": true,
          "internalType": "uint256",
          "name": "id",
          "type": "uint256"
        },
        {
          "indexed": false,
          "internalType": "uint256",
          "name": "amount",
          "type": "uint256"
        }
      ],
      "name": "FundsWithdrawn",
      "type": "event"
    },
    {
      "anonymous": false,
      "inputs": [
        {
          "indexed": true,
          "internalType": "uint256",
          "name": "id",
          "type": "uint256"
        },
        {
          "indexed": true,
          "internalType": "address",
          "name": "donator",
          "type": "address"
        },
        {
          "indexed": false,
          "internalType": "uint256",
          "name": "amount",
          "type": "uint256"
        }
      ],
      "name": "RefundIssued",
      "type": "event"
    },
    {
      "inputs": [
        {
          "internalType": "uint256",
          "name": "",
          "type": "uint256"
        }
      ],
      "name": "campaigns",
      "outputs": [
        {
          "internalType": "address",
          "name": "owner",
          "type": "address"
        },
        {
          "internalType": "string",
          "name": "title",
          "type": "string"
        },
        {
          "internalType": "string",
          "name": "description",
          "type": "string"
        },
        {
          "internalType": "uint256",
          "name": "target",
          "type": "uint256"
        },
        {
          "internalType": "uint256",
          "name": "deadline",
          "type": "uint256"
        },
        {
          "internalType": "uint256",
          "name": "amountCollected",
          "type": "uint256"
        }
      ],
      "stateMutability": "view",
      "type": "function"
    },
    {
      "inputs": [
        {
          "internalType": "uint256",
          "name": "_id",
          "type": "uint256"
        }
      ],
      "name": "claimRefund",
      "outputs": [],
      "stateMutability": "nonpayable",
      "type": "function"
    },
    {
      "inputs": [
        {
          "internalType": "string",
          "name": "_title",
          "type": "string"
        },
        {
          "internalType": "string",
          "name": "_description",
          "type": "string"
        },
        {
          "internalType": "uint256",
          "name": "_target",
          "type": "uint256"
        },
        {
          "internalType": "uint256",
          "name": "_deadline",
          "type": "uint256"
        }
      ],
      "name": "createCampaign",
      "outputs": [
        {
          "internalType": "uint256",
          "name": "",
          "type": "uint256"
        }
      ],
      "stateMutability": "nonpayable",
      "type": "function"
    },
    {
      "inputs": [
        {
          "internalType": "uint256",
          "name": "_id",
          "type": "uint256"
        }
      ],
      "name": "donateToCampaign",
      "outputs": [],
      "stateMutability": "payable",
      "type": "function"
    },
    {
      "inputs": [],
      "name": "getAllCampaigns",
      "outputs": [
        {
          "components": [
            {
              "internalType": "address",
              "name": "owner",
              "type": "address"
            },
            {
              "internalType": "string",
              "name": "title",
              "type": "string"
            },
            {
              "internalType": "string",
              "name": "description",
              "type": "string"
            },
            {
              "internalType": "uint256",
              "name": "target",
              "type": "uint256"
            },
            {
              "internalType": "uint256",
              "name": "deadline",
              "type": "uint256"
            },
            {
              "internalType": "uint256",
              "name": "amountCollected",
              "type": "uint256"
            },
            {
              "internalType": "address[]",
              "name": "donators",
              "type": "address[]"
            },
            {
              "internalType": "uint256[]",
              "name": "donations",
              "type": "uint256[]"
            }
          ],
          "internalType": "struct Crowdfunding.Campaign[]",
          "name": "",
          "type": "tuple[]"
        }
      ],
      "stateMutability": "view",
      "type": "function"
    },
    {
      "inputs": [
        {
          "internalType": "uint256",
          "name": "_id",
          "type": "uint256"
        }
      ],
      "name": "getDonators",
      "outputs": [
        {
          "internalType": "address[]",
          "name": "",
          "type": "address[]"
        },
        {
          "internalType": "uint256[]",
          "name": "",
          "type": "uint256[]"
        }
      ],
      "stateMutability": "view",
      "type": "function"
    },
    {
      "inputs": [],
      "name": "numberOfCampaigns",
      "outputs": [
        {
          "internalType": "uint256",
          "name": "",
          "type": "uint256"
        }
      ],
      "stateMutability": "view",
      "type": "function"
    },
    {
      "inputs": [
        {
          "internalType": "uint256",
          "name": "_id",
          "type": "uint256"
        }
      ],
      "name": "withdrawFunds",
      "outputs": [],
      "stateMutability": "nonpayable",
      "type": "function"
    }
  ],
  "bytecode": "0x608060405234801561001057600080fd5b50611ed4806100206000396000f3fe60806040526004361061007b5760003560e01c806342a4fda81161004e57806342a4fda8146101545780635b7baf641461017057806386cdf60414610199578063a318f269146101c45761007b565b806307ca140d146100805780630fa91fa9146100ab578063141961bc146100e9578063155dd5ee1461012b575b600080fd5b34801561008c57600080fd5b50610095610201565b6040516100a29190610f52565b60405180910390f35b3480156100b757600080fd5b506100d260048036038101906100cd9190610fad565b610207565b6040516100e0929190611188565b60405180910390f35b3480156100f557600080fd5b50610110600480360381019061010b9190610fad565b610317565b6040516101229695949392919061125e565b60405180910390f35b34801561013757600080fd5b50610152600480360381019061014d9190610fad565b610483565b005b61016e60048036038101906101699190610fad565b610677565b005b34801561017c57600080fd5b5061019760048036038101906101929190610fad565b6107d1565b005b3480156101a557600080fd5b506101ae610a44565b6040516101bb919061157c565b60405180910390f35b3480156101d057600080fd5b506101eb60048036038101906101e691906116d3565b610d82565b6040516101f89190610f52565b60405180910390f35b60015481565b606080600080848152602001908152602001600020600601600080858152602001908152602001600020600701818054806020026020016040519081016040528092919081815260200182805480156102b557602002820191906000526020600020905b8160009054906101000a900473ffffffffffffffffffffffffffffffffffffffff1673ffffffffffffffffffffffffffffffffffffffff168152602001906001019080831161026b575b505050505091508080548060200260200160405190810160405280929190818152602001828054801561030757602002820191906000526020600020905b8154815260200190600101908083116102f3575b5050505050905091509150915091565b60006020528060005260406000206000915090508060000160009054906101000a900473ffffffffffffffffffffffffffffffffffffffff1690806001018054610360906117a1565b80601f016020809104026020016040519081016040528092919081815260200182805461038c906117a1565b80156103d95780601f106103ae576101008083540402835291602001916103d9565b820191906000526020600020905b8154815290600101906020018083116103bc57829003601f168201915b5050505050908060020180546103ee906117a1565b80601f016020809104026020016040519081016040528092919081815260200182805461041a906117a1565b80156104675780601f1061043c57610100808354040283529160200191610467565b820191906000526020600020905b81548152906001019060200180831161044a57829003601f168201915b5050505050908060030154908060040154908060050154905086565b600080600083815260200190815260200160002090508060000160009054906101000a900473ffffffffffffffffffffffffffffffffffffffff1673ffffffffffffffffffffffffffffffffffffffff163373ffffffffffffffffffffffffffffffffffffffff161461052b576040517f08c379a00000000000000000000000000000000000000000000000000000000081526004016105229061181e565b60405180910390fd5b80600401544211610571576040517f08c379a00000000000000000000000000000000000000000000000000000000081526004016105689061188a565b60405180910390fd5b8060030154816005015410156105bc576040517f08c379a00000000000000000000000000000000000000000000000000000000081526004016105b3906118f6565b60405180910390fd5b600081600501549050600082600501819055508160000160009054906101000a900473ffffffffffffffffffffffffffffffffffffffff1673ffffffffffffffffffffffffffffffffffffffff166108fc829081150290604051600060405180830381858888f19350505050158015610639573d6000803e3d6000fd5b50827fd66662c0ded9e58fd31d5e44944bcfd07ffc15e6927ecc1382e7941cb7bd24c48260405161066a9190610f52565b60405180910390a2505050565b60008060008381526020019081526020016000209050806004015442106106d3576040517f08c379a00000000000000000000000000000000000000000000000000000000081526004016106ca90611962565b60405180910390fd5b80600601339080600181540180825580915050600190039060005260206000200160009091909190916101000a81548173ffffffffffffffffffffffffffffffffffffffff021916908373ffffffffffffffffffffffffffffffffffffffff160217905550806007013490806001815401808255809150506001900390600052602060002001600090919091909150553481600501600082825461077791906119b1565b925050819055503373ffffffffffffffffffffffffffffffffffffffff16827f0b5b4c52969ff7329ecf7ee536409fda87812b15a8622bc6e8cdeab3aee14a26346040516107c59190610f52565b60405180910390a35050565b600080600083815260200190815260200160002090508060040154421161082d576040517f08c379a00000000000000000000000000000000000000000000000000000000081526004016108249061188a565b60405180910390fd5b8060030154816005015410610877576040517f08c379a000000000000000000000000000000000000000000000000000000000815260040161086e90611a31565b60405180910390fd5b6000805b8260060180549050811015610965573373ffffffffffffffffffffffffffffffffffffffff168360060182815481106108b7576108b6611a51565b5b9060005260206000200160009054906101000a900473ffffffffffffffffffffffffffffffffffffffff1673ffffffffffffffffffffffffffffffffffffffff16036109525782600701818154811061091357610912611a51565b5b90600052602060002001548261092991906119b1565b9150600083600701828154811061094357610942611a51565b5b90600052602060002001819055505b808061095d90611a80565b91505061087b565b50600081116109a9576040517f08c379a00000000000000000000000000000000000000000000000000000000081526004016109a090611b14565b60405180910390fd5b3373ffffffffffffffffffffffffffffffffffffffff166108fc829081150290604051600060405180830381858888f193505050501580156109ef573d6000803e3d6000fd5b503373ffffffffffffffffffffffffffffffffffffffff16837f7a482fdeb6bc9a1376f597068a214a7a39472bb2eff1b8cad21ba04f49ddca1b83604051610a379190610f52565b60405180910390a3505050565b6060600060015467ffffffffffffffff811115610a6457610a636115a8565b5b604051908082528060200260200182016040528015610a9d57816020015b610a8a610ede565b815260200190600190039081610a825790505b50905060005b600154811015610d7a57600080828152602001908152602001600020604051806101000160405290816000820160009054906101000a900473ffffffffffffffffffffffffffffffffffffffff1673ffffffffffffffffffffffffffffffffffffffff1673ffffffffffffffffffffffffffffffffffffffff168152602001600182018054610b31906117a1565b80601f0160208091040260200160405190810160405280929190818152602001828054610b5d906117a1565b8015610baa5780601f10610b7f57610100808354040283529160200191610baa565b820191906000526020600020905b815481529060010190602001808311610b8d57829003601f168201915b50505050508152602001600282018054610bc3906117a1565b80601f0160208091040260200160405190810160405280929190818152602001828054610bef906117a1565b8015610c3c5780601f10610c1157610100808354040283529160200191610c3c565b820191906000526020600020905b815481529060010190602001808311610c1f57829003601f168201915b5050505050815260200160038201548152602001600482015481526020016005820154815260200160068201805480602002602001604051908101604052809291908181526020018280548015610ce857602002820191906000526020600020905b8160009054906101000a900473ffffffffffffffffffffffffffffffffffffffff1673ffffffffffffffffffffffffffffffffffffffff1681526020019060010190808311610c9e575b5050505050815260200160078201805480602002602001604051908101604052809291908181526020018280548015610d4057602002820191906000526020600020905b815481526020019060010190808311610d2c575b505050505081525050828281518110610d5c57610d5b611a51565b5b60200260200101819052508080610d7290611a80565b915050610aa3565b508091505090565b6000428211610dc6576040517f08c379a0000000000000000000000000000000000000000000000000000000008152600401610dbd90611b80565b60405180910390fd5b600080600060015481526020019081526020016000209050338160000160006101000a81548173ffffffffffffffffffffffffffffffffffffffff021916908373ffffffffffffffffffffffffffffffffffffffff16021790555085816001019081610e329190611d4c565b5084816002019081610e449190611d4c565b508381600301819055508281600401819055503373ffffffffffffffffffffffffffffffffffffffff167fdc26653af5b99b2da33e2ad69ee6600d9aeccc82b034501db4338309615ca238600154888787604051610ea59493929190611e1e565b60405180910390a260016000815480929190610ec090611a80565b919050555060018054610ed39190611e6a565b915050949350505050565b604051806101000160405280600073ffffffffffffffffffffffffffffffffffffffff168152602001606081526020016060815260200160008152602001600081526020016000815260200160608152602001606081525090565b6000819050919050565b610f4c81610f39565b82525050565b6000602082019050610f676000830184610f43565b92915050565b6000604051905090565b600080fd5b600080fd5b610f8a81610f39565b8114610f9557600080fd5b50565b600081359050610fa781610f81565b92915050565b600060208284031215610fc357610fc2610f77565b5b6000610fd184828501610f98565b91505092915050565b600081519050919050565b600082825260208201905092915050565b6000819050602082019050919050565b600073ffffffffffffffffffffffffffffffffffffffff82169050919050565b600061103182611006565b9050919050565b61104181611026565b82525050565b60006110538383611038565b60208301905092915050565b6000602082019050919050565b600061107782610fda565b6110818185610fe5565b935061108c83610ff6565b8060005b838110156110bd5781516110a48882611047565b97506110af8361105f565b925050600181019050611090565b5085935050505092915050565b600081519050919050565b600082825260208201905092915050565b6000819050602082019050919050565b6110ff81610f39565b82525050565b600061111183836110f6565b60208301905092915050565b6000602082019050919050565b6000611135826110ca565b61113f81856110d5565b935061114a836110e6565b8060005b8381101561117b5781516111628882611105565b975061116d8361111d565b92505060018101905061114e565b5085935050505092915050565b600060408201905081810360008301526111a2818561106c565b905081810360208301526111b6818461112a565b90509392505050565b6111c881611026565b82525050565b600081519050919050565b600082825260208201905092915050565b60005b838110156112085780820151818401526020810190506111ed565b60008484015250505050565b6000601f19601f8301169050919050565b6000611230826111ce565b61123a81856111d9565b935061124a8185602086016111ea565b61125381611214565b840191505092915050565b600060c08201905061127360008301896111bf565b81810360208301526112858188611225565b905081810360408301526112998187611225565b90506112a86060830186610f43565b6112b56080830185610f43565b6112c260a0830184610f43565b979650505050505050565b600081519050919050565b600082825260208201905092915050565b6000819050602082019050919050565b600082825260208201905092915050565b6000611315826111ce565b61131f81856112f9565b935061132f8185602086016111ea565b61133881611214565b840191505092915050565b600082825260208201905092915050565b600061135f82610fda565b6113698185611343565b935061137483610ff6565b8060005b838110156113a557815161138c8882611047565b97506113978361105f565b925050600181019050611378565b5085935050505092915050565b600082825260208201905092915050565b60006113ce826110ca565b6113d881856113b2565b93506113e3836110e6565b8060005b838110156114145781516113fb8882611105565b97506114068361111d565b9250506001810190506113e7565b5085935050505092915050565b60006101008301600083015161143a6000860182611038565b5060208301518482036020860152611452828261130a565b9150506040830151848203604086015261146c828261130a565b915050606083015161148160608601826110f6565b50608083015161149460808601826110f6565b5060a08301516114a760a08601826110f6565b5060c083015184820360c08601526114bf8282611354565b91505060e083015184820360e08601526114d982826113c3565b9150508091505092915050565b60006114f28383611421565b905092915050565b6000602082019050919050565b6000611512826112cd565b61151c81856112d8565b93508360208202850161152e856112e9565b8060005b8581101561156a578484038952815161154b85826114e6565b9450611556836114fa565b925060208a01995050600181019050611532565b50829750879550505050505092915050565b600060208201905081810360008301526115968184611507565b905092915050565b600080fd5b600080fd5b7f4e487b7100000000000000000000000000000000000000000000000000000000600052604160045260246000fd5b6115e082611214565b810181811067ffffffffffffffff821117156115ff576115fe6115a8565b5b80604052505050565b6000611612610f6d565b905061161e82826115d7565b919050565b600067ffffffffffffffff82111561163e5761163d6115a8565b5b61164782611214565b9050602081019050919050565b82818337600083830152505050565b600061167661167184611623565b611608565b905082815260208101848484011115611692576116916115a3565b5b61169d848285611654565b509392505050565b600082601f8301126116ba576116b961159e565b5b81356116ca848260208601611663565b91505092915050565b600080600080608085870312156116ed576116ec610f77565b5b600085013567ffffffffffffffff81111561170b5761170a610f7c565b5b611717878288016116a5565b945050602085013567ffffffffffffffff81111561173857611737610f7c565b5b611744878288016116a5565b935050604061175587828801610f98565b925050606061176687828801610f98565b91505092959194509250565b7f4e487b7100000000000000000000000000000000000000000000000000000000600052602260045260246000fd5b600060028204905060018216806117b957607f821691505b6020821081036117cc576117cb611772565b5b50919050565b7f4f6e6c792063726561746f720000000000000000000000000000000000000000600082015250565b6000611808600c836111d9565b9150611813826117d2565b602082019050919050565b60006020820190508181036000830152611837816117fb565b9050919050565b7f546f6f206561726c790000000000000000000000000000000000000000000000600082015250565b60006118746009836111d9565b915061187f8261183e565b602082019050919050565b600060208201905081810360008301526118a381611867565b9050919050565b7f476f616c206e6f74206d65740000000000000000000000000000000000000000600082015250565b60006118e0600c836111d9565b91506118eb826118aa565b602082019050919050565b6000602082019050818103600083015261190f816118d3565b9050919050565b7f43616d706169676e206578706972656400000000000000000000000000000000600082015250565b600061194c6010836111d9565b915061195782611916565b602082019050919050565b6000602082019050818103600083015261197b8161193f565b9050919050565b7f4e487b7100000000000000000000000000000000000000000000000000000000600052601160045260246000fd5b60006119bc82610f39565b91506119c783610f39565b92508282019050808211156119df576119de611982565b5b92915050565b7f476f616c206d65742c206e6f20726566756e6473000000000000000000000000600082015250565b6000611a1b6014836111d9565b9150611a26826119e5565b602082019050919050565b60006020820190508181036000830152611a4a81611a0e565b9050919050565b7f4e487b7100000000000000000000000000000000000000000000000000000000600052603260045260246000fd5b6000611a8b82610f39565b91507fffffffffffffffffffffffffffffffffffffffffffffffffffffffffffffffff8203611abd57611abc611982565b5b600182019050919050565b7f4e6f2066756e647320746f20726566756e640000000000000000000000000000600082015250565b6000611afe6012836111d9565b9150611b0982611ac8565b602082019050919050565b60006020820190508181036000830152611b2d81611af1565b9050919050565b7f446561646c696e65206d75737420626520696e20667574757265000000000000600082015250565b6000611b6a601a836111d9565b9150611b7582611b34565b602082019050919050565b60006020820190508181036000830152611b9981611b5d565b9050919050565b60008190508160005260206000209050919050565b60006020601f8301049050919050565b600082821b905092915050565b600060088302611c027fffffffffffffffffffffffffffffffffffffffffffffffffffffffffffffffff82611bc5565b611c0c8683611bc5565b95508019841693508086168417925050509392505050565b6000819050919050565b6000611c49611c44611c3f84610f39565b611c24565b610f39565b9050919050565b6000819050919050565b611c6383611c2e565b611c77611c6f82611c50565b848454611bd2565b825550505050565b600090565b611c8c611c7f565b611c97818484611c5a565b505050565b5b81811015611cbb57611cb0600082611c84565b600181019050611c9d565b5050565b601f821115611d0057611cd181611ba0565b611cda84611bb5565b81016020851015611ce9578190505b611cfd611cf585611bb5565b830182611c9c565b50505b505050565b600082821c905092915050565b6000611d2360001984600802611d05565b1980831691505092915050565b6000611d3c8383611d12565b9150826002028217905092915050565b611d55826111ce565b67ffffffffffffffff811115611d6e57611d6d6115a8565b5b611d7882546117a1565b611d83828285611cbf565b600060209050601f831160018114611db65760008415611da4578287015190505b611dae8582611d30565b865550611e16565b601f198416611dc486611ba0565b60005b82811015611dec57848901518255600182019150602085019450602081019050611dc7565b86831015611e095784890151611e05601f891682611d12565b8355505b6001600288020188555050505b505050505050565b6000608082019050611e336000830187610f43565b8181036020830152611e458186611225565b9050611e546040830185610f43565b611e616060830184610f43565b95945050505050565b6000611e7582610f39565b9150611e8083610f39565b9250828203905081811115611e9857611e97611982565b5b9291505056fea26469706673582212202f6aab28989a22305323d5c7bd5be5e34731f8f86c6a4feb93b4a7694970205b64736f6c63430008140033",
  "linkReferences": {},
  "deployedLinkReferences": {}
}